{
	"Loop.sol": {
		"Loop": {
			"abi": [
				{
					"inputs": [],
					"name": "loop",
					"outputs": [],
					"stateMutability": "pure",
					"type": "function"
				}
			],
			"devdoc": {
				"kind": "dev",
				"methods": {},
				"version": 1
			},
			"evm": {
				"assembly": "    /* \"Loop.sol\":60:325  contract Loop{... */\n  mstore(0x40, 0x80)\n  callvalue\n  dup1\n  iszero\n  tag_1\n  jumpi\n  0x00\n  dup1\n  revert\ntag_1:\n  pop\n  dataSize(sub_0)\n  dup1\n  dataOffset(sub_0)\n  0x00\n  codecopy\n  0x00\n  return\nstop\n\nsub_0: assembly {\n        /* \"Loop.sol\":60:325  contract Loop{... */\n      mstore(0x40, 0x80)\n      callvalue\n      dup1\n      iszero\n      tag_1\n      jumpi\n      0x00\n      dup1\n      revert\n    tag_1:\n      pop\n      jumpi(tag_2, lt(calldatasize, 0x04))\n      shr(0xe0, calldataload(0x00))\n      dup1\n      0xa92100cb\n      eq\n      tag_3\n      jumpi\n    tag_2:\n      0x00\n      dup1\n      revert\n        /* \"Loop.sol\":82:322  function loop() pure public {... */\n    tag_3:\n      tag_4\n      tag_5\n      jump\t// in\n    tag_4:\n      stop\n    tag_5:\n        /* \"Loop.sol\":146:155  uint256 i */\n      0x00\n        /* \"Loop.sol\":141:315  for (uint256 i = 0;i<10;i = i++){... */\n    tag_7:\n        /* \"Loop.sol\":162:164  10 */\n      0x0a\n        /* \"Loop.sol\":160:161  i */\n      dup2\n        /* \"Loop.sol\":160:164  i<10 */\n      lt\n        /* \"Loop.sol\":141:315  for (uint256 i = 0;i<10;i = i++){... */\n      iszero\n      tag_8\n      jumpi\n        /* \"Loop.sol\":196:197  3 */\n      0x03\n        /* \"Loop.sol\":191:192  i */\n      dup2\n        /* \"Loop.sol\":191:197  i == 3 */\n      sub\n        /* \"Loop.sol\":188:241  if(i == 3){... */\n      iszero\n        /* \"Loop.sol\":217:225  continue */\n      tag_9\n        /* \"Loop.sol\":188:241  if(i == 3){... */\n      jumpi\n        /* \"Loop.sol\":262:263  5 */\n      0x05\n        /* \"Loop.sol\":258:259  i */\n      dup2\n        /* \"Loop.sol\":258:263  i== 5 */\n      sub\n        /* \"Loop.sol\":255:304  if(i== 5){... */\n      iszero\n        /* \"Loop.sol\":283:288  break */\n      tag_8\n        /* \"Loop.sol\":255:304  if(i== 5){... */\n      jumpi\n        /* \"Loop.sol\":141:315  for (uint256 i = 0;i<10;i = i++){... */\n    tag_9:\n        /* \"Loop.sol\":169:172  i++ */\n      dup1\n      dup1\n      tag_12\n      swap1\n      tag_13\n      jump\t// in\n    tag_12:\n      swap2\n      pop\n        /* \"Loop.sol\":165:172  i = i++ */\n      swap1\n      pop\n        /* \"Loop.sol\":141:315  for (uint256 i = 0;i<10;i = i++){... */\n      jump(tag_7)\n    tag_8:\n      pop\n        /* \"Loop.sol\":82:322  function loop() pure public {... */\n      jump\t// out\n        /* \"#utility.yul\":7:187   */\n    tag_14:\n        /* \"#utility.yul\":55:132   */\n      0x4e487b7100000000000000000000000000000000000000000000000000000000\n        /* \"#utility.yul\":52:53   */\n      0x00\n        /* \"#utility.yul\":45:133   */\n      mstore\n        /* \"#utility.yul\":152:156   */\n      0x11\n        /* \"#utility.yul\":149:150   */\n      0x04\n        /* \"#utility.yul\":142:157   */\n      mstore\n        /* \"#utility.yul\":176:180   */\n      0x24\n        /* \"#utility.yul\":173:174   */\n      0x00\n        /* \"#utility.yul\":166:181   */\n      revert\n        /* \"#utility.yul\":193:270   */\n    tag_15:\n        /* \"#utility.yul\":230:237   */\n      0x00\n        /* \"#utility.yul\":259:264   */\n      dup2\n        /* \"#utility.yul\":248:264   */\n      swap1\n      pop\n        /* \"#utility.yul\":193:270   */\n      swap2\n      swap1\n      pop\n      jump\t// out\n        /* \"#utility.yul\":276:509   */\n    tag_13:\n        /* \"#utility.yul\":315:318   */\n      0x00\n        /* \"#utility.yul\":338:362   */\n      tag_20\n        /* \"#utility.yul\":356:361   */\n      dup3\n        /* \"#utility.yul\":338:362   */\n      tag_15\n      jump\t// in\n    tag_20:\n        /* \"#utility.yul\":329:362   */\n      swap2\n      pop\n        /* \"#utility.yul\":384:450   */\n      0xffffffffffffffffffffffffffffffffffffffffffffffffffffffffffffffff\n        /* \"#utility.yul\":377:382   */\n      dup3\n        /* \"#utility.yul\":374:451   */\n      sub\n        /* \"#utility.yul\":371:474   */\n      tag_21\n      jumpi\n        /* \"#utility.yul\":454:472   */\n      tag_22\n      tag_14\n      jump\t// in\n    tag_22:\n        /* \"#utility.yul\":371:474   */\n    tag_21:\n        /* \"#utility.yul\":501:502   */\n      0x01\n        /* \"#utility.yul\":494:499   */\n      dup3\n        /* \"#utility.yul\":490:503   */\n      add\n        /* \"#utility.yul\":483:503   */\n      swap1\n      pop\n        /* \"#utility.yul\":276:509   */\n      swap2\n      swap1\n      pop\n      jump\t// out\n\n    auxdata: 0xa2646970667358221220e4eb3e891e2cccbc57d74d0a13e01cea10b658e30a058b86fb3fae8d60b1182e64736f6c63430008180033\n}\n",
				"bytecode": {
					"linkReferences": {},
					"object": "608060405234801561000f575f80fd5b5061010f8061001d5f395ff3fe6080604052348015600e575f80fd5b50600436106026575f3560e01c8063a92100cb14602a575b5f80fd5b60306032565b005b5f5b600a811015605e576003810315604d576005810315605e575b80806056906097565b915090506034565b50565b7f4e487b71000000000000000000000000000000000000000000000000000000005f52601160045260245ffd5b5f819050919050565b5f609f82608e565b91507fffffffffffffffffffffffffffffffffffffffffffffffffffffffffffffffff820360ce5760cd6061565b5b60018201905091905056fea2646970667358221220e4eb3e891e2cccbc57d74d0a13e01cea10b658e30a058b86fb3fae8d60b1182e64736f6c63430008180033",
					"opcodes": "PUSH1 0x80 PUSH1 0x40 MSTORE CALLVALUE DUP1 ISZERO PUSH2 0xF JUMPI PUSH0 DUP1 REVERT JUMPDEST POP PUSH2 0x10F DUP1 PUSH2 0x1D PUSH0 CODECOPY PUSH0 RETURN INVALID PUSH1 0x80 PUSH1 0x40 MSTORE CALLVALUE DUP1 ISZERO PUSH1 0xE JUMPI PUSH0 DUP1 REVERT JUMPDEST POP PUSH1 0x4 CALLDATASIZE LT PUSH1 0x26 JUMPI PUSH0 CALLDATALOAD PUSH1 0xE0 SHR DUP1 PUSH4 0xA92100CB EQ PUSH1 0x2A JUMPI JUMPDEST PUSH0 DUP1 REVERT JUMPDEST PUSH1 0x30 PUSH1 0x32 JUMP JUMPDEST STOP JUMPDEST PUSH0 JUMPDEST PUSH1 0xA DUP2 LT ISZERO PUSH1 0x5E JUMPI PUSH1 0x3 DUP2 SUB ISZERO PUSH1 0x4D JUMPI PUSH1 0x5 DUP2 SUB ISZERO PUSH1 0x5E JUMPI JUMPDEST DUP1 DUP1 PUSH1 0x56 SWAP1 PUSH1 0x97 JUMP JUMPDEST SWAP2 POP SWAP1 POP PUSH1 0x34 JUMP JUMPDEST POP JUMP JUMPDEST PUSH32 0x4E487B7100000000000000000000000000000000000000000000000000000000 PUSH0 MSTORE PUSH1 0x11 PUSH1 0x4 MSTORE PUSH1 0x24 PUSH0 REVERT JUMPDEST PUSH0 DUP2 SWAP1 POP SWAP2 SWAP1 POP JUMP JUMPDEST PUSH0 PUSH1 0x9F DUP3 PUSH1 0x8E JUMP JUMPDEST SWAP2 POP PUSH32 0xFFFFFFFFFFFFFFFFFFFFFFFFFFFFFFFFFFFFFFFFFFFFFFFFFFFFFFFFFFFFFFFF DUP3 SUB PUSH1 0xCE JUMPI PUSH1 0xCD PUSH1 0x61 JUMP JUMPDEST JUMPDEST PUSH1 0x1 DUP3 ADD SWAP1 POP SWAP2 SWAP1 POP JUMP INVALID LOG2 PUSH5 0x6970667358 0x22 SLT KECCAK256 0xE4 0xEB RETURNDATACOPY DUP10 0x1E 0x2C 0xCC 0xBC JUMPI 0xD7 0x4D EXP SGT 0xE0 SHR 0xEA LT 0xB6 PC 0xE3 EXP SDIV DUP12 DUP7 0xFB EXTCODEHASH 0xAE DUP14 PUSH1 0xB1 XOR 0x2E PUSH5 0x736F6C6343 STOP ADDMOD XOR STOP CALLER "
				},
				"gasEstimates": {
					"creation": {
						"codeDepositCost": "54200",
						"executionCost": "103",
						"totalCost": "54303"
					},
					"external": {
						"loop()": "infinite"
					}
				},
				"methodIdentifiers": {
					"loop()": "a92100cb"
				}
			},
			"storageLayout": {
				"storage": [],
				"types": null
			},
			"userdoc": {
				"kind": "user",
				"methods": {},
				"version": 1
			}
		}
	}
}